{
  "contractName": "Car",
  "abi": [
    {
      "inputs": [],
      "name": "counter",
      "outputs": [
        {
          "internalType": "uint256",
          "name": "",
          "type": "uint256"
        }
      ],
      "stateMutability": "view",
      "type": "function"
    },
    {
      "inputs": [],
      "name": "getCounter",
      "outputs": [
        {
          "internalType": "uint256",
          "name": "",
          "type": "uint256"
        }
      ],
      "stateMutability": "view",
      "type": "function"
    },
    {
      "inputs": [
        {
          "internalType": "string",
          "name": "a",
          "type": "string"
        },
        {
          "internalType": "string",
          "name": "b",
          "type": "string"
        }
      ],
      "name": "compareStrings",
      "outputs": [
        {
          "internalType": "bool",
          "name": "",
          "type": "bool"
        }
      ],
      "stateMutability": "pure",
      "type": "function"
    },
    {
      "inputs": [
        {
          "internalType": "string",
          "name": "_vin",
          "type": "string"
        },
        {
          "internalType": "uint256",
          "name": "_year",
          "type": "uint256"
        },
        {
          "internalType": "string",
          "name": "_make",
          "type": "string"
        },
        {
          "internalType": "string",
          "name": "_model",
          "type": "string"
        }
      ],
      "name": "addCar",
      "outputs": [],
      "stateMutability": "nonpayable",
      "type": "function"
    },
    {
      "inputs": [],
      "name": "getCars",
      "outputs": [
        {
          "internalType": "string[]",
          "name": "",
          "type": "string[]"
        },
        {
          "internalType": "uint256[]",
          "name": "",
          "type": "uint256[]"
        },
        {
          "internalType": "string[]",
          "name": "",
          "type": "string[]"
        },
        {
          "internalType": "string[]",
          "name": "",
          "type": "string[]"
        }
      ],
      "stateMutability": "view",
      "type": "function"
    },
    {
      "inputs": [
        {
          "internalType": "string",
          "name": "_vin",
          "type": "string"
        }
      ],
      "name": "getCar",
      "outputs": [
        {
          "internalType": "string",
          "name": "",
          "type": "string"
        },
        {
          "internalType": "uint256",
          "name": "",
          "type": "uint256"
        },
        {
          "internalType": "string",
          "name": "",
          "type": "string"
        },
        {
          "internalType": "string",
          "name": "",
          "type": "string"
        }
      ],
      "stateMutability": "view",
      "type": "function"
    },
    {
      "inputs": [
        {
          "internalType": "string",
          "name": "_vin",
          "type": "string"
        }
      ],
      "name": "removeCar",
      "outputs": [
        {
          "internalType": "string",
          "name": "",
          "type": "string"
        },
        {
          "internalType": "string",
          "name": "",
          "type": "string"
        }
      ],
      "stateMutability": "nonpayable",
      "type": "function"
    },
    {
      "inputs": [],
      "name": "hello",
      "outputs": [
        {
          "internalType": "string",
          "name": "",
          "type": "string"
        }
      ],
      "stateMutability": "pure",
      "type": "function"
    }
  ],
  "bytecode": "0x60806040526000805534801561001457600080fd5b50611678806100246000396000f3fe608060405234801561001057600080fd5b50600436106100885760003560e01c806361bc221a1161005b57806361bc221a1461011b5780638ada066e146101395780639f5eba2b14610157578063bed34bba1461018857610088565b806317c392861461008d57806319ff1d21146100ae5780633cfcf9a9146100cc578063479487e3146100e8575b600080fd5b6100956101b8565b6040516100a594939291906111d2565b60405180910390f35b6100b66105cc565b6040516100c3919061124e565b60405180910390f35b6100e660048036038101906100e19190610f31565b610609565b005b61010260048036038101906100fd9190610e70565b610693565b60405161011294939291906112a7565b60405180910390f35b6101236109e3565b6040516101309190611301565b60405180910390f35b6101416109e9565b60405161014e9190611301565b60405180910390f35b610171600480360381019061016c9190610e70565b6109f2565b60405161017f929190611270565b60405180910390f35b6101a2600480360381019061019d9190610eb9565b610c2d565b6040516101af9190611233565b60405180910390f35b6060806060806000805467ffffffffffffffff8111156101db576101da6115d7565b5b60405190808252806020026020018201604052801561020e57816020015b60608152602001906001900390816101f95790505b5090506000805467ffffffffffffffff81111561022e5761022d6115d7565b5b60405190808252806020026020018201604052801561025c5781602001602082028036833780820191505090505b5090506000805467ffffffffffffffff81111561027c5761027b6115d7565b5b6040519080825280602002602001820160405280156102af57816020015b606081526020019060019003908161029a5790505b5090506000805467ffffffffffffffff8111156102cf576102ce6115d7565b5b60405190808252806020026020018201604052801561030257816020015b60608152602001906001900390816102ed5790505b50905060005b6000548110156105b557610335858281518110610328576103276115a8565b5b6020026020010151610c86565b6001600082815260200190815260200160002060000180546103569061149e565b80601f01602080910402602001604051908101604052809291908181526020018280546103829061149e565b80156103cf5780601f106103a4576101008083540402835291602001916103cf565b820191906000526020600020905b8154815290600101906020018083116103b257829003601f168201915b50505050508582815181106103e7576103e66115a8565b5b6020026020010181905250600160008281526020019081526020016000206002015484828151811061041c5761041b6115a8565b5b6020026020010181815250506001600082815260200190815260200160002060030180546104499061149e565b80601f01602080910402602001604051908101604052809291908181526020018280546104759061149e565b80156104c25780601f10610497576101008083540402835291602001916104c2565b820191906000526020600020905b8154815290600101906020018083116104a557829003601f168201915b50505050508382815181106104da576104d96115a8565b5b60200260200101819052506001600082815260200190815260200160002060010180546105069061149e565b80601f01602080910402602001604051908101604052809291908181526020018280546105329061149e565b801561057f5780601f106105545761010080835404028352916020019161057f565b820191906000526020600020905b81548152906001019060200180831161056257829003601f168201915b5050505050828281518110610597576105966115a8565b5b602002602001018190525080806105ad90611501565b915050610308565b508383838397509750975097505050505090919293565b60606040518060400160405280600c81526020017f68656c6c6f20776f726c64210000000000000000000000000000000000000000815250905090565b60006001600080548152602001908152602001600020905081816001019080519060200190610639929190610d48565b508381600201819055508281600301908051906020019061065b929190610d48565b5084816000019080519060200190610674929190610d48565b5060008081548092919061068790611501565b91905055505050505050565b6060600060608060005b60005481101561097957600115156107536001600084815260200190815260200160002060000180546106cf9061149e565b80601f01602080910402602001604051908101604052809291908181526020018280546106fb9061149e565b80156107485780601f1061071d57610100808354040283529160200191610748565b820191906000526020600020905b81548152906001019060200180831161072b57829003601f168201915b505050505088610c2d565b151514156109665760016000828152602001908152602001600020600001600160008381526020019081526020016000206002015460016000848152602001908152602001600020600301600160008581526020019081526020016000206001018380546107c09061149e565b80601f01602080910402602001604051908101604052809291908181526020018280546107ec9061149e565b80156108395780601f1061080e57610100808354040283529160200191610839565b820191906000526020600020905b81548152906001019060200180831161081c57829003601f168201915b5050505050935081805461084c9061149e565b80601f01602080910402602001604051908101604052809291908181526020018280546108789061149e565b80156108c55780601f1061089a576101008083540402835291602001916108c5565b820191906000526020600020905b8154815290600101906020018083116108a857829003601f168201915b505050505091508080546108d89061149e565b80601f01602080910402602001604051908101604052809291908181526020018280546109049061149e565b80156109515780601f1061092657610100808354040283529160200191610951565b820191906000526020600020905b81548152906001019060200180831161093457829003601f168201915b505050505090509450945094509450506109dc565b808061097190611501565b91505061069d565b5060006040518060400160405280600d81526020017f6e6f7468696e6720666f756e640000000000000000000000000000000000000081525090604051806020016040528060008152506040518060200160405280600081525093509350935093505b9193509193565b60005481565b60008054905090565b60608060005b600054811015610beb5760011515610aae600160008481526020019081526020016000206000018054610a2a9061149e565b80601f0160208091040260200160405190810160405280929190818152602001828054610a569061149e565b8015610aa35780601f10610a7857610100808354040283529160200191610aa3565b820191906000526020600020905b815481529060010190602001808311610a8657829003601f168201915b505050505086610c2d565b15151415610bd85760405180602001604052806000815250600160008381526020019081526020016000206000019080519060200190610aef929190610d48565b5060405180602001604052806000815250600160008381526020019081526020016000206001019080519060200190610b29929190610d48565b506000600160008381526020019081526020016000206002018190555060405180602001604052806000815250600160008381526020019081526020016000206003019080519060200190610b7f929190610d48565b50600080815480929190610b9290611474565b9190505550836040518060400160405280601481526020017f7375636365737366756c6c792072656d6f7665640000000000000000000000008152509250925050610c28565b8080610be390611501565b9150506109f8565b50826040518060400160405280600e81526020017f646f6573206e6f74206578697374000000000000000000000000000000000000815250915091505b915091565b600081604051602001610c4091906111bb565b6040516020818303038152906040528051906020012083604051602001610c6791906111bb565b6040516020818303038152906040528051906020012014905092915050565b610d1c81604051602401610c9a919061124e565b6040516020818303038152906040527f41304fac000000000000000000000000000000000000000000000000000000007bffffffffffffffffffffffffffffffffffffffffffffffffffffffff19166020820180517bffffffffffffffffffffffffffffffffffffffffffffffffffffffff8381831617835250505050610d1f565b50565b60008151905060006a636f6e736f6c652e6c6f679050602083016000808483855afa5050505050565b828054610d549061149e565b90600052602060002090601f016020900481019282610d765760008555610dbd565b82601f10610d8f57805160ff1916838001178555610dbd565b82800160010185558215610dbd579182015b82811115610dbc578251825591602001919060010190610da1565b5b509050610dca9190610dce565b5090565b5b80821115610de7576000816000905550600101610dcf565b5090565b6000610dfe610df984611341565b61131c565b905082815260208101848484011115610e1a57610e1961160b565b5b610e25848285611432565b509392505050565b600082601f830112610e4257610e41611606565b5b8135610e52848260208601610deb565b91505092915050565b600081359050610e6a8161162b565b92915050565b600060208284031215610e8657610e85611615565b5b600082013567ffffffffffffffff811115610ea457610ea3611610565b5b610eb084828501610e2d565b91505092915050565b60008060408385031215610ed057610ecf611615565b5b600083013567ffffffffffffffff811115610eee57610eed611610565b5b610efa85828601610e2d565b925050602083013567ffffffffffffffff811115610f1b57610f1a611610565b5b610f2785828601610e2d565b9150509250929050565b60008060008060808587031215610f4b57610f4a611615565b5b600085013567ffffffffffffffff811115610f6957610f68611610565b5b610f7587828801610e2d565b9450506020610f8687828801610e5b565b935050604085013567ffffffffffffffff811115610fa757610fa6611610565b5b610fb387828801610e2d565b925050606085013567ffffffffffffffff811115610fd457610fd3611610565b5b610fe087828801610e2d565b91505092959194509250565b6000610ff883836110fa565b905092915050565b600061100c838361119d565b60208301905092915050565b600061102382611392565b61102d81856113cd565b93508360208202850161103f85611372565b8060005b8581101561107b578484038952815161105c8582610fec565b9450611067836113b3565b925060208a01995050600181019050611043565b50829750879550505050505092915050565b60006110988261139d565b6110a281856113de565b93506110ad83611382565b8060005b838110156110de5781516110c58882611000565b97506110d0836113c0565b9250506001810190506110b1565b5085935050505092915050565b6110f48161141c565b82525050565b6000611105826113a8565b61110f81856113ef565b935061111f818560208601611441565b6111288161161a565b840191505092915050565b600061113e826113a8565b6111488185611400565b9350611158818560208601611441565b6111618161161a565b840191505092915050565b6000611177826113a8565b6111818185611411565b9350611191818560208601611441565b80840191505092915050565b6111a681611428565b82525050565b6111b581611428565b82525050565b60006111c7828461116c565b915081905092915050565b600060808201905081810360008301526111ec8187611018565b90508181036020830152611200818661108d565b905081810360408301526112148185611018565b905081810360608301526112288184611018565b905095945050505050565b600060208201905061124860008301846110eb565b92915050565b600060208201905081810360008301526112688184611133565b905092915050565b6000604082019050818103600083015261128a8185611133565b9050818103602083015261129e8184611133565b90509392505050565b600060808201905081810360008301526112c18187611133565b90506112d060208301866111ac565b81810360408301526112e28185611133565b905081810360608301526112f68184611133565b905095945050505050565b600060208201905061131660008301846111ac565b92915050565b6000611326611337565b905061133282826114d0565b919050565b6000604051905090565b600067ffffffffffffffff82111561135c5761135b6115d7565b5b6113658261161a565b9050602081019050919050565b6000819050602082019050919050565b6000819050602082019050919050565b600081519050919050565b600081519050919050565b600081519050919050565b6000602082019050919050565b6000602082019050919050565b600082825260208201905092915050565b600082825260208201905092915050565b600082825260208201905092915050565b600082825260208201905092915050565b600081905092915050565b60008115159050919050565b6000819050919050565b82818337600083830152505050565b60005b8381101561145f578082015181840152602081019050611444565b8381111561146e576000848401525b50505050565b600061147f82611428565b915060008214156114935761149261154a565b5b600182039050919050565b600060028204905060018216806114b657607f821691505b602082108114156114ca576114c9611579565b5b50919050565b6114d98261161a565b810181811067ffffffffffffffff821117156114f8576114f76115d7565b5b80604052505050565b600061150c82611428565b91507fffffffffffffffffffffffffffffffffffffffffffffffffffffffffffffffff82141561153f5761153e61154a565b5b600182019050919050565b7f4e487b7100000000000000000000000000000000000000000000000000000000600052601160045260246000fd5b7f4e487b7100000000000000000000000000000000000000000000000000000000600052602260045260246000fd5b7f4e487b7100000000000000000000000000000000000000000000000000000000600052603260045260246000fd5b7f4e487b7100000000000000000000000000000000000000000000000000000000600052604160045260246000fd5b600080fd5b600080fd5b600080fd5b600080fd5b6000601f19601f8301169050919050565b61163481611428565b811461163f57600080fd5b5056fea26469706673582212201096578fdfbe3e7972aa15c4d57b824a08425bb551b685e32136ccf71315c5ed64736f6c63430008070033",
  "immutableReferences": {},
  "source": "pragma solidity ^0.8.7;\nimport \"hardhat/console.sol\";\n\n\n\ncontract Car{\n    uint256 public counter = 0;\n    struct carInfo{\n        string vin;\n        string model;\n        uint256 year;\n        string make;\n    }\n\n    function getCounter() public view returns (uint256){\n        return counter;\n    }\n    \n    function compareStrings(string memory a, string memory b) public pure returns (bool) {\n    return (keccak256(abi.encodePacked((a))) == keccak256(abi.encodePacked((b))));\n    }   \n    mapping (uint256 => carInfo) car;\n\n    function addCar(string memory _vin,  uint256 _year, string memory _make, string memory _model) public {\n        carInfo storage newCar = car[counter];\n        newCar.model = _model;\n        newCar.year = _year;\n        newCar.make = _make;\n        newCar.vin = _vin;\n        counter++;\n    }\n\n    function getCars() external view returns(string[] memory, uint256[] memory, string[] memory, string[] memory){\n        string[] memory vinNumbers = new string[](counter);\n        uint256[] memory years1 = new uint256[](counter);\n        string[] memory makes = new string[](counter);\n        string[] memory models = new string[](counter);\n\n        for(uint i = 0; i < counter; i++){\n            console.log(vinNumbers[i]);\n            vinNumbers[i] = car[i].vin;\n            years1[i] = car[i].year;\n            makes[i] = car[i].make;\n            models[i] = car[i].model;\n        }\n        return (vinNumbers, years1, makes, models);\n\n    }\n\n    \n\n    function getCar(string memory _vin) public view returns (string memory, uint256 ,string memory,string memory) \n    {\n       \n      \n        for (uint256 i = 0; i < counter; i++){\n            if (compareStrings(car[i].vin, _vin) == true){\n                 return (car[i].vin, car[i].year,car[i].make,car[i].model);\n            }\n                \n        }\n        return (\"nothing found\", 0,\"\", \"\");\n       \n    }\n\n    function removeCar(string memory _vin) public returns (string memory, string memory) \n    {\n       \n      \n        for (uint256 i = 0; i < counter; i++){\n            if (compareStrings(car[i].vin, _vin) == true){\n                car[i].vin = \"\";\n                car[i].model = \"\";\n                car[i].year = 0;\n                car[i].make = \"\";\n                counter--;\n                return (_vin, \"successfully removed\");\n            }    \n        }\n        return (_vin, \"does not exist\");\n       \n    }\n\n    \n\n    function hello() public pure returns (string memory) {\n        return \"hello world!\";\n    }\n}\n",
  "sourcePath": "/Users/khalidgobin/Documents/GitHub/DecentraLease/contracts/Car.sol",
  "compiler": {
    "name": "solc",
    "version": "0.8.7+commit.e28d00a7.Emscripten.clang"
  },
  "schemaVersion": "3.4.4",
  "updatedAt": "2022-01-19T01:30:05.455Z",
  "devdoc": {
    "kind": "dev",
    "methods": {},
    "version": 1
  },
  "userdoc": {
    "kind": "user",
    "methods": {},
    "version": 1
  }
}